:020000040800F2
:1000000058070020610100084D130008C7120008BE
:1000100000000000000000000000000000000000E0
:100020000000000000000000000000005113000864
:1000300000000000000000004F13000853130008E8
:1000400073010008730100087301000873010008C0
:1000500073010008730100087301000873010008B0
:1000600073010008730100087301000873010008A0
:100070007301000873010008730100087301000890
:1000800073010008730100080000000073010008FC
:100090007301000873010008730100087301000870
:1000A000730100087301000873010008711700084C
:1000B00073010008000000007301000800F002F85E
:1000C00000F03EF80CA030C8083824182D18A246BD
:1000D000671EAB4654465D46AC4201D100F030F895
:1000E0007E460F3E0FCCB6460126334200D0FB1AA7
:1000F000A246AB4633431847401700006017000084
:10010000103A02D378C878C1FAD8520701D330C860
:1001100030C101D504680C60704700000023002442
:1001200000250026103A01D378C1FBD8520700D32E
:1001300030C100D50B6070471FB51FBD10B510BD95
:1001400000F07BF91146FFF7F7FF01F053FB00F0D9
:1001500093F903B4FFF7F2FF03BC00F099F9000034
:100160000748804707480047FEE7FEE7FEE7FEE74F
:10017000FEE7FEE704480549054A064B70470000C4
:10018000C5130008BD0000085801002058070020D2
:100190005803002058030020FEB5054610460C46C3
:1001A000184373D0AE468C460020AD1A01469C41E0
:1001B00067D36646002701243D46B61A9D4102D307
:1001C00013463A462124654676462F04360C3E43B4
:1001D0002D0CB61A9D4104D3150C1B042B4312049D
:1001E0001034654676462F06360A3E432D0AB61A67
:1001F0009D4104D3150E1B022B43120208346546A1
:1002000076462F0736093E432D09B61A9D4104D381
:10021000150F1B012B431201241D65467646AF07BF
:10022000B6083E43AD08B61A9D4104D3950F9B0016
:100230002B439200A41C65467646EF0776083E43A2
:100240006D08B61A9D411AD392185B41641C16E0E2
:100250000018764665464941B71A9D4101910090C4
:1002600009D36046B11A98418E4684460098019998
:100270000025401C6941DD0752082A435B08641EC3
:10028000E6D57246634603B0F0BDFFE700200146A5
:10029000C046C0462A462346F5E701E004C0091FD0
:1002A0000429FBD28B0701D50280801CC90700D02E
:1002B0000270704700290BD0C30702D00270401CA7
:1002C000491E022904D3830702D50280801C891E9F
:1002D000E3E70022EEE70022DFE7002203098B427A
:1002E0002CD3030A8B4211D300239C464EE00346D5
:1002F0000B433CD4002243088B4231D303098B4289
:100300001CD3030A8B4201D394463FE0C3098B42BE
:1003100001D3CB01C01A524183098B4201D38B0117
:10032000C01A524143098B4201D34B01C01A5241BA
:1003300003098B4201D30B01C01A5241C3088B42FF
:1003400001D3CB00C01A524183088B4201D38B00EA
:10035000C01A524143088B4201D34B00C01A52418C
:10036000411A00D201465241104670475DE0CA0F63
:1003700000D04942031000D34042534000229C4623
:1003800003098B422DD3030A8B4212D3FC2289012D
:1003900012BA030A8B420CD3890192118B4208D303
:1003A000890192118B4204D389013AD0921100E065
:1003B0008909C3098B4201D3CB01C01A5241830979
:1003C0008B4201D38B01C01A524143098B4201D3A6
:1003D0004B01C01A524103098B4201D30B01C01AD1
:1003E0005241C3088B4201D3CB00C01A524183084B
:1003F0008B4201D38B00C01A5241D9D243088B42A1
:1004000001D34B00C01A5241411A00D20146634643
:1004100052415B10104601D34042002B00D54942A7
:10042000704763465B1000D3404201B50020C046D0
:10043000C04602BD704770477047754600F024F80B
:10044000AE46050069465346C008C000854618B050
:1004500020B5FFF78FFE60BC00274908B64600268E
:10046000C0C5C0C5C0C5C0C5C0C5C0C5C0C5C0C564
:10047000403D49008D46704710B50446C046C04611
:100480002046FFF766FE10BD00487047F8000020C8
:1004900001491820ABBEFEE726000200704730B5C8
:1004A000014620314B780022022B04D004238363C1
:1004B0000A70012030BD03681C680E25AC431C6027
:1004C00003681C68640864001C600123056C1C46FA
:1004D000C06BAC4044604B700A70002030BD70B5FA
:1004E0000024014620314A78022A03D00421816386
:1004F000012416E0026813680E25AB4313600268FE
:1005000013685B085B0013600122056C1346AB4067
:10051000C56B6B604A7000220A70416B002900D0E5
:100520008847204670BD0000F8B50023032401254C
:10053000BAE02E469E40B44632407CD00E79B607D3
:10054000B60F012E01D0022E17D186682746B64677
:100550005E00B74000967646BE43B646CF68009E22
:10056000B74076463743876046686746BE430F7993
:10057000FF06FF0F9F40374347600E79F643B607EB
:100580000ED0C6682746B4465E00B646B7406646FB
:10059000BE43B4468F687646B74066463743C76069
:1005A0000E79B607B60F022E14D1DE08B600361843
:1005B0000096366A5F07B446FE0E0F27B646B74070
:1005C0006646BE43B4460F697646B7406646374333
:1005D000009E376206682746B4465E00B646B740BE
:1005E0006646BE430F79B446BF07BF0F7646B74095
:1005F0006646374307604E68B603B60F53D02D4F9B
:10060000BE692E43BE61BE699F08F607F60F2A4EEB
:10061000BF00BE190096B6680F27B4469E07360F76
:10062000B646B7406646BE430927FF06B446B84201
:1006300002D1002710E036E0204FB84201D1012757
:100640000AE01F4FB84201D1022705E01D4FB84212
:1006500001D1032700E005277646B74066463743B9
:10066000009EB760184E36684F689643FF0300D56A
:100670001643154F3E607E684F689643BF0300D512
:100680001643114F7E60BE684F689643FF0200D547
:1006900016430D4FBE60FE684F689643BF0200D5FB
:1006A0001643094AD6605B1C0A681646DE4000D035
:1006B0003FE7F8BD00100240000001400004004880
:1006C00000080048000C0048000401400148806810
:1006D00070470000000000200248816802788918F5
:1006E000816070470000002010B5064801681022A4
:1006F00011430160032000F007F800F027F8002004
:1007000010BD00000020024070B504460D4D7D2054
:100710002978C000FFF7E1FD01460B480068FFF7AC
:10072000DCFD00F0F1FB002809D1042C07D20022E7
:100730002146401E00F02AF800206C6070BD0120A8
:1007400070BD0000000000200C00002008B5084823
:100750008169012211438161816911400091C2695F
:1007600001040A43C261C0690840009008BD00004E
:1007700000100240002805DBC106C90E0120884098
:10078000014908607047000000E100E010B501F089
:100790000FF810BDF8B505460068394CC00352D5B6
:1007A000E0690026C00007D4E16920040143E1614B
:1007B000E16901400126009132480168C90510D461
:1007C0000168821511430160FFF780FF074604E0CE
:1007D000FFF77CFFC01B642824D82A480068C005A6
:1007E000F6D5206A03273F02384020D06968394097
:1007F00081421CD0206A226AB843012109040A43BD
:100800002262226A8A4322622062C0070FD0FFF769
:100810005DFF009008E0FFF759FF0099411A1A4860
:10082000814201D90320F8BD206A8007F3D5206AF0
:100830006968B84308432062002E04D0E1690120B2
:1008400000078143E1612878C00705D0206BA968C3
:1008500080088000084320632878800605D5206B37
:1008600010218843E968084320632888400505D59E
:10087000206B402188432969084320630020F8BD8C
:10088000001002400070004088130000F8B50F46C9
:10089000060059D03A4D2868C007C00FB84209D2A7
:1008A000286840084000384328602868C007C00F07
:1008B000B84249D13068334C81070CD5400704D584
:1008C000606807210902084360606068F02188437E
:1008D000B168084360603078C00726D0706801288E
:1008E0000ED0216802280ED0890700292CDA616811
:1008F0008908890001436160FFF7E8FE00900DE080
:1009000021688903F1E78901EFE7FFF7DFFE00992E
:10091000411A1D48814201D90320F8BD60680C21AD
:100920000840716889008842EFD12868C007C00F6D
:10093000B8420BD92868400840003843286028682E
:10094000C007C00FB84201D00120F8BD3078400781
:1009500006D56068072109028843F1680843606092
:1009600000F028F86168094A0906090F515CC8407F
:10097000074908600320FFF7C7FE0020F8BD00000C
:1009800000200240001002408813000020180008D8
:100990000C0000200448054900684968044A4905DC
:1009A000490F515CC84070470C0000200010024005
:1009B0003018000810B514A30FCB88B06C460FC4D4
:1009C00015A30FCB0FC4184A51680C200B460340E7
:1009D0001648042B16D0082B14D18B021B0F6C4623
:1009E000E45CD26A04AB1207120F9A5CC90305D506
:1009F00000231946FFF7D0FB214601E020460C49B1
:100A000000F0BEFE08B010BD020304050607080989
:100A10000A0B0C0D0E0F1010010203040506070847
:100A2000090A0B0C0D0E0F100010024000127A0084
:100A300000093D00FEB5040070D02078DC4DC007F1
:100A40004AD068680007800F012807D0686800074F
:100A5000800F022809D16868C00306D52868800382
:100A60003AD560680028E7D036E06168012914D0E3
:100A700001208004002901D0052914D02A68012111
:100A800009048A432A602968814329606068002834
:100A900016D0FFF71BFE06460EE028680121090468
:100AA00008432860F2E7296801432960F5E7FFF76A
:100AB0000DFE801B64286ED828688003F7D50BE0F4
:100AC000FFF704FE064604E0FFF700FE801B6428E3
:100AD000F1D828688003F7D4207801268007002801
:100AE0003CDA68680007800F07D068680007800F4D
:100AF000022809D16868C00306D42868800716D583
:100B0000E06801280AD112E0E0680028286816D0C1
:100B100030432860FFF7DAFD074605E043E1FFF7C1
:100B2000D5FDC01B0228C6D828688007F7D52868DD
:100B3000F82188432169C900084328600EE0400875
:100B400040002860FFF7C2FD074604E0FFF7BEFD46
:100B5000C01B0228AFD828688007F7D42078000788
:100B600022D5E0690028686A0ED030436862FFF73A
:100B7000ADFD074604E0FFF7A9FDC01B02289AD887
:100B8000686A8007F7D50FE0400840006862FFF709
:100B90009DFD074605E09DE0FFF798FDC01B02287C
:100BA00089D8686A8007F7D420780427400700288E
:100BB00060DA00200190E869C00008D4E969B8064D
:100BC0000143E961E9690140012000910190794800
:100BD0000168C90511D40168821511430160FFF74E
:100BE00075FD009005E0FFF771FD0099401A64283B
:100BF00070D870480068C005F5D5A06801280AD0F3
:100C0000002801D0052810D0286A4008400028623A
:100C1000286AB84301E0286A30432862A0680028A7
:100C200012D0FFF753FD00900AE0286A384328628B
:100C3000F1E7FFF74BFD0099411A5F48814249D81F
:100C4000286A8007F5D50DE0FFF740FD009006E02B
:100C5000FFF73CFD0099411A574881423AD8286A6B
:100C60008007F5D40198002804D0E9690120000725
:100C70008143E9612078C00635D5606901280CD030
:100C8000401D686B23D038436863686B40084000A0
:100C90006863FFF71BFD064622E0686B3843686314
:100CA000686B30436863FFF711FD064604E0FFF709
:100CB0000DFD801B02285BD8686B8007F7D5686B39
:100CC000F8218843A169C900084368630BE0B84371
:100CD0006863F4E74CE0FFF7F9FC801B022847D873
:100CE000686B8007F7D4206A00285ED0696809071E
:100CF000890F022942D0012636060228286805D02D
:100D0000B0432860FFF7E2FC044633E0B0432860BC
:100D1000FFF7DCFC074604E0FFF7D8FCC01B022805
:100D200026D828688001F7D4E86AE16A0009000142
:100D30000843E862616AA06A084369683D221204B8
:100D4000914308436860286830432860FFF7BEFC81
:100D5000044604E0FFF7BAFC001B022808D8286804
:100D60008001F7D521E0FFF7B1FC001B022801D973
:100D70000320FEBD28688001F5D416E00128F8D0D4
:100D80006868E96A01221204636A02409A420AD141
:100D90000907E26A090F914205D10F218904084031
:100DA000A16A884201D00120FEBD0020FEBD0000E6
:100DB000001002400070004088130000F8B50400E5
:100DC0000CD0606A002500280AD02561656126469E
:100DD0004036A562707F002808D00BE00120F8BDE6
:100DE0006168C81FFD38F2D0E561F0E7357720462D
:100DF00000F05CF802227277206801684023994372
:100E000001600723E1681B02994201D9002001E03B
:100E1000012000030F273F02B94202D0994200D0BF
:100E2000A562FF236168053319402127A368BF022B
:100E30003B40194323691340227D1943D207D20F47
:100E400011430123A2695B021A401143E26938236E
:100E50001A401143226A80231A401143A26A9B015F
:100E60001A40114322681160A1690422090C114043
:100E7000626A10231A401143626B08231A4011431F
:100E80000F23E2681B021A40114301221203104093
:100E90000143206841602068C16952109143C161DB
:100EA0002566012070770020F8BD000010B586B0DF
:100EB000044614216846FFF70EFA1149206888425B
:100EC0001CD11048826981140A43826182690A40F8
:100ED0000592426949010A43426140690840059010
:100EE000E020009002200190002103200390029155
:100EF000049109206946C006FFF716FB06B010BD35
:100F00000030014000100240094910B5401E8842DF
:100F100001D9012010BD074C60610321081F00F0BA
:100F200047FC0020A06107202061002010BD0000C8
:100F3000FFFFFF0000E000E07047704770470000CF
:100F4000F8B502680446D06911689668A24B034060
:100F50001D462023002D75D0F707A04DFF0FBC467E
:100F60000D402F436DD02546C7078035002F06D092
:100F7000CF0504D5012717622A683A432A60820701
:100F800008D5F20706D0276802223A622A680427A9
:100F90003A432A60420708D5F20706D026680422A1
:100FA00032622A68022632432A6002070AD50A46BC
:100FB0001A406646324305D02668082232622E68FF
:100FC00016432E60020508D54A0106D5012226687F
:100FD000D20232622A681A432A602A68002A39D06B
:100FE000800606D5880604D5616E002901D020460A
:100FF0008847286821688968490602D42821084260
:101000002DD0204600F080FA21688868400622D55D
:10101000EFF31080012282F310888B684022934303
:101020008B6080F31088206F002814D06C494163D6
:10103000206FFFF754FA00280CD0206F416B08E0B6
:1010400000E012E0850610D58D060ED5616EA8E091
:1010500020468847F8BD2046FFF770FFF8BD2046C0
:10106000FFF76CFF00202860F8BD256E012D7DD1B3
:10107000C5067BD5CD0679D5102616622268906804
:10108000254640064035002845DA216F086840684B
:101090000004000CE8D02F8B8742E5D9688388696B
:1010A000202833D0EFF31080012181F310881168DC
:1010B0003701B943116080F31088EFF310800121EC
:1010C00081F3108821688A68520852008A6080F390
:1010D0001088EFF31080012181F3108821688A685D
:1010E0004027BA438A6080F31088E36700202066B7
:1010F000EFF31080012181F3108821680A68B24360
:101100000A6080F31088206FFFF7C9F9288B698B7C
:10111000401A81B231E0288B698B401A81B2688B0A
:101120000028A1D000299FD0EFF31080012585F37E
:1011300010881568FF272137BD43156080F310889C
:10114000EFF31080012282F31088226895686D0801
:101150006D00956080F31088E3670020206660666C
:10116000EFF31080012282F3108800E009E022688A
:101170001368B343136080F310882046FFF7DCFE4A
:10118000F8BDC50208D5750206D50120000510621C
:101190002046FFF7D2FEF8BD050606D50D0604D59C
:1011A000A16E002900D053E7F8BD4006FCD54806E3
:1011B000FAD52046EFF31081012484F310881568D6
:1011C0004024A543156081F3108883670021816660
:1011D00000F078F8F8BD00000F08000020010004BE
:1011E000F514000810B5040003D0A06F002802D049
:1011F00007E0012010BD002174200155204600F0B9
:1012000027F82420A0672068016849084900016088
:10121000204600F0A9F90128ECD0606A002802D02D
:10122000204600F0D0F8206841680922D20291439C
:101230004160206881682A229143816020680168AA
:10124000012211430160204600F022F910BD000088
:1012500010B586B0044614216846FFF73CF81749DC
:101260002068884227D116488269012189030A43F0
:10127000826182690A4005924269C9000A4342615B
:101280004069084005900320400200900220019030
:101290000020029003200390012004900920694659
:1012A000C006FFF741F9002211461B20FFF76EFA36
:1012B0001B20FFF75FFA06B010BD000000380140A8
:1012C000001002407047FEE710B511480F49016059
:1012D000FF2105314160002103228160120201617A
:1012E000C2604161C16101220162520241628261B8
:1012F00081620722C262016308214163FFF75EFD3C
:10130000002801D072B6FEE710BD00000030014099
:101310001000002010B50C480A490160E121490283
:10132000416000218160C16001618161C1610C2265
:10133000016242614162FFF755FF002801D072B699
:10134000FEE710BD0038014074000020FEE7704742
:10135000704710B5FFF7C0F910BD30B595B030211A
:101360006846FEF7B8FF00240C940D940E941421E7
:1013700010A80F94FEF7AFFF022000900125102067
:101380000395049008946846FFF754FB002801D0A9
:1013900072B6FEE707200C900D940E9400210F9476
:1013A0000CA8FFF773FA002801D072B6FEE710A868
:1013B00010951294FFF7EEF9002801D072B6FEE7FF
:1013C00015B030BD704710B5818CC90707D00168D2
:1013D0004A6801235B049A43836A1A434A60818CFA
:1013E000890707D501684A6801231B049A43C36A29
:1013F0001A434A60818C490707D501684A6801236E
:101400009B049A43036B1A434A60818C090707D5F2
:1014100001684A680123DB039A43436B1A434A601D
:10142000818CC90607D50268916801231B03994383
:10143000836B19439160818C890607D501688A689E
:1014400001235B039A43C36B1A438A60818C49066C
:1014500012D503685A6801210905046C8A432243A6
:101460005A60026C8A4207D10268516803235B0507
:101470009943436C19435160818C090607D5016873
:101480004A680123DB04806C9A4302434A6010BD22
:10149000F8B50446002680300660FFF717F90546C8
:1014A00020680068124F000709D501212B46002251
:1014B00049052046009700F0F1F800280DD120687A
:1014C000006840070BD501212B46002289052046E4
:1014D000009700F0E3F8002801D00320F8BD202099
:1014E000A067E0672666603426750020F8BD00001E
:1014F000FFFFFF0110B5406A0022014640314A83D8
:101500004A82FFF71BFD10BD10B5EFF310810122D9
:1015100082F3108802681368FF242134A343136008
:1015200081F31088EFF31081012282F310880268A2
:1015300093685B085B00936081F31088016E01295A
:101540000BD1EFF31081012282F310880268136837
:101550001024A343136081F310882021C167002168
:101560000166416610BD000070B5044680682169BF
:10157000E269084361690025114322680843116844
:10158000404B19400143116021684868032212034F
:101590009043E26810434860A169206A08432168CB
:1015A0008A680B231B029A4302438A6036492068EB
:1015B000884210D13548006B8007800F0ED001287B
:1015C00005D0022805D003280AD1022109E0042110
:1015D00007E0082105E02E49884201D1002100E002
:1015E00010210120E369C0032A4A2B4E834223D1F4
:1015F000002906D0022907D0042907D0082937D1AD
:1016000008E0FFF7C7F903E0104603E0FFF7D2F95F
:10161000002831D0616840004A088018FEF75DFE5E
:1016200080B201461039B14222D81B49491C014001
:101630000007400F08431DE0002906D0022907D00B
:10164000042907D0082913D108E0FFF7A3F903E024
:10165000104603E0FFF7AEF900280DD061684A0894
:101660001018FEF73AFE80B201461039B14201D996
:10167000012501E02168C86000206066A066284658
:1016800070BD0000F369FFFF003801400010024008
:101690000044004000127A00EFFF0000FFB581B067
:1016A00005461746044660350A9E55E0701C53D027
:1016B000FFF70CF80499401AB04230D8002E2ED013
:1016C00020680168490747D5C069C043000543D475
:1016D00001202168C0020862EFF31080012181F32C
:1016E000108821680B68FF22A13293430B6080F3BE
:1016F0001088EFF31080012181F3108821688A6837
:10170000520852008A6080F310882020A067E067AA
:101710008034206000202875032005B0F0BDEFF371
:101720001080012181F3108821680B68FF22A1320B
:1017300093430B6080F31088EFF31080012181F355
:10174000108821688A68520852008A6080F31088E5
:101750002020A067E067DDE72068C1690298884320
:1017600004D00020B842A1D00020D6E70120F9E73C
:1017700010B50248FFF7E4FB10BD00007400002024
:10178000F8B5040C8BB2264682B25E430D0C1046AF
:10179000370C5843360480190021794116466E43B0
:1017A000370C36048019794126466E438919F8BDF5
:1017B0008307FF22DB0E9A408907090E9940002813
:1017C00008DB830809489B001B18186890430843EE
:1017D000186070470007000F0838830804489B0012
:1017E0001B18D86990430843D861704700E400E0B3
:1017F00000ED00E008B5FEF777FFFFF7AEFD074804
:101800004269012149040A4342614069084000904D
:10181000FFF75AFDFFF77EFDFEE7000000100240D3
:101820000000000000000000010203040607080990
:101830000000000001020304581800080000002006
:1018400010000000000100086818000810000020C7
:10185000480700001C01000801000000040000000F
:081860000000000000127A00F4
:04000005080000BD32
:00000001FF
